:100000000C9434000C9446000C9446000C9446006A
:100010000C9446000C9446000C9446000C94460048
:100020000C9446000C9446000C9446000C94460038
:100030000C9446000C9446000C9446000C94460028
:100040000C9446000C9446000C9446000C94460018
:100050000C9446000C9446000C9446000C94460008
:100060000C9446000C94460011241FBECFEFD4E040
:10007000DEBFCDBF21E0A0E0B1E001C01D92A43001
:10008000B207E1F70E94A5000C94C2000C94000096
:10009000EAE7F0E084E88083ACE7B0E08C9180642C
:1000A0008C93808180688083089590917C00907FFC
:1000B00090937C0090917C00892B80937C0020E1C0
:1000C00030E080E090E040917A00406440937A0014
:1000D00040917A0046FDFCCF409178005091790024
:1000E000840F951F2150310971F796958795969544
:1000F00087950895009741F006B407FEFDCF01975C
:1001000026B52138E8F7F6CF08950F931F93CF93C4
:10011000DF9300E010E0C82FD0E00C171D076CF44F
:100120002D9A88EC90E00E947A002D9888EC90E05F
:100130000E947A000F5F1F4FF0CF84EF91E0DF91B4
:10014000CF911F910F910C947A0014BC82E085BD71
:1001500083E28093800084E18093810080EF9FE0C0
:10016000909389008093880010928B0010928A00EF
:100170008FEF85B984E284B90E94480083E00E9431
:080180008500FFCFF894FFCFCA
:00000001FF
