:100000000C9434000C943E000C943E000C943E0082
:100010000C943E000C943E000C943E000C943E0068
:100020000C943E000C943E000C943E000C943E0058
:100030000C943E000C943E000C943E000C943E0048
:100040000C943E000C943E000C943E000C943E0038
:100050000C943E000C943E000C943E000C943E0028
:100060000C943E000C943E0011241FBECFEFD8E04C
:10007000DEBFCDBF0E949D000C9406010C940000D1
:10008000EAE7F0E083E88083ACE7B0E08C9180643D
:100090008C93808180688083089590917C00907F0C
:1000A00090937C0090917C00892B80937C0020E1D0
:1000B00030E080E090E040917A00406440937A0024
:1000C00040917A0046FDFCCF409178005091790034
:1000D000840F951F2150310971F796958795969554
:1000E00087950895009741F026B52E31E8F30197E2
:1000F00026B52F31E8F7F6CF08950F931F93CF93CE
:10010000DF9300E010E0C82FD0E00C171D076CF45F
:100110002D9A88EC90E00E9472002D9880E991E081
:100120000E9472000F5F1F4FF0CF88E592E0DF91D1
:10013000CF911F910F910C94720084B5816084BDA2
:1001400085B5886085BD85B5826085BD84B58068CC
:1001500084BD84B5806284BD8DE387BD8EE188BD9A
:100160008FEF8AB98BB99091B00091609093B000F5
:100170009091B00092609093B0009091B100916026
:100180009093B1009091B00090689093B0009091DE
:10019000B00090629093B00091E69093B30090E32A
:1001A0009093B40090918000916090938000909122
:1001B0008100906190938100909181009160909373
:1001C00081009091800090629093800020E030E860
:1001D000309389002093880020E030E430938B0036
:1001E00020938A008AB984B985B90E94400085E0CD
:1001F0000E947D0088EE93E00E94720080E00E94E1
:100200004D009093890080938800F1CFF894FFCF40
:00000001FF
