:100000000C9434000C943E000C943E000C943E0082
:100010000C943E000C943E000C943E000C943E0068
:100020000C943E000C943E000C943E000C943E0058
:100030000C943E000C943E000C943E000C943E0048
:100040000C943E000C943E000C943E000C943E0038
:100050000C943E000C943E000C943E000C943E0028
:100060000C943E000C943E0011241FBECFEFD8E04C
:10007000DEBFCDBF0E949D000C94FF000C940000D9
:10008000EAE7F0E084E88083ACE7B0E08C9180643C
:100090008C93808180688083089590917C00907F0C
:1000A00090937C0090917C00892B80937C0020E1D0
:1000B00030E080E090E040917A00406440937A0024
:1000C00040917A0046FDFCCF409178005091790034
:1000D000840F951F2150310971F796958795969554
:1000E00087950895009741F006B407FEFDCF01976C
:1000F00026B52138E8F7F6CF08950F931F93CF93D5
:10010000DF9300E010E0C82FD0E00C171D076CF45F
:100110002D9A84E190E00E9472002D9888EC90E086
:100120000E9472000F5F1F4FF0CF84EF91E0DF91CC
:10013000CF911F910F910C94720084B5816084BDA2
:1001400085B5886085BD85B5826085BD84B58068CC
:1001500084BD84B5806284BD8DE387BD8EE188BD9A
:100160008FEF8AB98BB99091B00091609093B000F5
:100170009091B00092609093B0009091B100916026
:100180009093B1009091B00090689093B0009091DE
:10019000B00090629093B00091E69093B30090E32A
:1001A0009093B40090918000916090938000909122
:1001B0008100906190938100909181009160909373
:1001C0008100909180009062909380002FEF3FEF2C
:1001D000309389002093880020E030E830938B0032
:1001E00020938A008AB984B985B90E94400084E1CD
:1001F0000E947D0084EF91E00E947200F8CFF89495
:02020000FFCF2E
:00000001FF
